{
  "contractName": "Lottery",
  "abi": [
    {
      "inputs": [],
      "stateMutability": "nonpayable",
      "type": "constructor"
    },
    {
      "anonymous": false,
      "inputs": [
        {
          "indexed": false,
          "internalType": "uint256",
          "name": "index",
          "type": "uint256"
        },
        {
          "indexed": false,
          "internalType": "address",
          "name": "bettor",
          "type": "address"
        },
        {
          "indexed": false,
          "internalType": "uint256",
          "name": "amount",
          "type": "uint256"
        },
        {
          "indexed": false,
          "internalType": "bytes1",
          "name": "challenges",
          "type": "bytes1"
        },
        {
          "indexed": false,
          "internalType": "uint256",
          "name": "answerBlockNumber",
          "type": "uint256"
        }
      ],
      "name": "BET",
      "type": "event"
    },
    {
      "anonymous": false,
      "inputs": [
        {
          "indexed": false,
          "internalType": "uint256",
          "name": "index",
          "type": "uint256"
        },
        {
          "indexed": false,
          "internalType": "address",
          "name": "bettor",
          "type": "address"
        },
        {
          "indexed": false,
          "internalType": "uint256",
          "name": "amount",
          "type": "uint256"
        },
        {
          "indexed": false,
          "internalType": "bytes1",
          "name": "challenges",
          "type": "bytes1"
        },
        {
          "indexed": false,
          "internalType": "bytes1",
          "name": "answer",
          "type": "bytes1"
        },
        {
          "indexed": false,
          "internalType": "uint256",
          "name": "answerBlockNumer",
          "type": "uint256"
        }
      ],
      "name": "DRAW",
      "type": "event"
    },
    {
      "anonymous": false,
      "inputs": [
        {
          "indexed": false,
          "internalType": "uint256",
          "name": "index",
          "type": "uint256"
        },
        {
          "indexed": false,
          "internalType": "address",
          "name": "bettor",
          "type": "address"
        },
        {
          "indexed": false,
          "internalType": "uint256",
          "name": "amount",
          "type": "uint256"
        },
        {
          "indexed": false,
          "internalType": "bytes1",
          "name": "challenges",
          "type": "bytes1"
        },
        {
          "indexed": false,
          "internalType": "bytes1",
          "name": "answer",
          "type": "bytes1"
        },
        {
          "indexed": false,
          "internalType": "uint256",
          "name": "answerBlockNumer",
          "type": "uint256"
        }
      ],
      "name": "FAIL",
      "type": "event"
    },
    {
      "anonymous": false,
      "inputs": [
        {
          "indexed": false,
          "internalType": "uint256",
          "name": "index",
          "type": "uint256"
        },
        {
          "indexed": false,
          "internalType": "address",
          "name": "bettor",
          "type": "address"
        },
        {
          "indexed": false,
          "internalType": "uint256",
          "name": "amount",
          "type": "uint256"
        },
        {
          "indexed": false,
          "internalType": "bytes1",
          "name": "challenges",
          "type": "bytes1"
        },
        {
          "indexed": false,
          "internalType": "uint256",
          "name": "answerBlockNumer",
          "type": "uint256"
        }
      ],
      "name": "REFUND",
      "type": "event"
    },
    {
      "anonymous": false,
      "inputs": [
        {
          "indexed": false,
          "internalType": "uint256",
          "name": "index",
          "type": "uint256"
        },
        {
          "indexed": false,
          "internalType": "address",
          "name": "bettor",
          "type": "address"
        },
        {
          "indexed": false,
          "internalType": "uint256",
          "name": "amount",
          "type": "uint256"
        },
        {
          "indexed": false,
          "internalType": "bytes1",
          "name": "challenges",
          "type": "bytes1"
        },
        {
          "indexed": false,
          "internalType": "bytes1",
          "name": "answer",
          "type": "bytes1"
        },
        {
          "indexed": false,
          "internalType": "uint256",
          "name": "answerBlockNumer",
          "type": "uint256"
        }
      ],
      "name": "WIN",
      "type": "event"
    },
    {
      "inputs": [],
      "name": "answerForTest",
      "outputs": [
        {
          "internalType": "bytes32",
          "name": "",
          "type": "bytes32"
        }
      ],
      "stateMutability": "view",
      "type": "function"
    },
    {
      "inputs": [],
      "name": "getSomeValue",
      "outputs": [
        {
          "internalType": "uint256",
          "name": "value",
          "type": "uint256"
        }
      ],
      "stateMutability": "pure",
      "type": "function"
    },
    {
      "inputs": [],
      "name": "getPot",
      "outputs": [
        {
          "internalType": "uint256",
          "name": "pot",
          "type": "uint256"
        }
      ],
      "stateMutability": "view",
      "type": "function"
    },
    {
      "inputs": [
        {
          "internalType": "bytes1",
          "name": "challenges",
          "type": "bytes1"
        }
      ],
      "name": "bet",
      "outputs": [
        {
          "internalType": "bool",
          "name": "result",
          "type": "bool"
        }
      ],
      "stateMutability": "payable",
      "type": "function"
    },
    {
      "inputs": [],
      "name": "destribute",
      "outputs": [],
      "stateMutability": "nonpayable",
      "type": "function"
    },
    {
      "inputs": [
        {
          "internalType": "uint256",
          "name": "index",
          "type": "uint256"
        }
      ],
      "name": "getBetInfo",
      "outputs": [
        {
          "internalType": "uint256",
          "name": "answerBlockNumber",
          "type": "uint256"
        },
        {
          "internalType": "address",
          "name": "bettor",
          "type": "address"
        },
        {
          "internalType": "bytes1",
          "name": "challenges",
          "type": "bytes1"
        }
      ],
      "stateMutability": "view",
      "type": "function"
    },
    {
      "inputs": [
        {
          "internalType": "bytes1",
          "name": "challenges",
          "type": "bytes1"
        }
      ],
      "name": "pushBet",
      "outputs": [
        {
          "internalType": "bool",
          "name": "",
          "type": "bool"
        }
      ],
      "stateMutability": "nonpayable",
      "type": "function"
    },
    {
      "inputs": [
        {
          "internalType": "uint256",
          "name": "index",
          "type": "uint256"
        }
      ],
      "name": "popBet",
      "outputs": [
        {
          "internalType": "bool",
          "name": "",
          "type": "bool"
        }
      ],
      "stateMutability": "nonpayable",
      "type": "function"
    },
    {
      "inputs": [
        {
          "internalType": "bytes32",
          "name": "answer",
          "type": "bytes32"
        }
      ],
      "name": "setAnswerForTest",
      "outputs": [
        {
          "internalType": "bool",
          "name": "result",
          "type": "bool"
        }
      ],
      "stateMutability": "nonpayable",
      "type": "function"
    },
    {
      "inputs": [
        {
          "internalType": "bytes1",
          "name": "challenges",
          "type": "bytes1"
        },
        {
          "internalType": "bytes32",
          "name": "answer",
          "type": "bytes32"
        }
      ],
      "name": "isMatch",
      "outputs": [
        {
          "internalType": "enum Lottery.BettingResult",
          "name": "",
          "type": "uint8"
        }
      ],
      "stateMutability": "pure",
      "type": "function"
    }
  ],
  "bytecode": "0x60806040526000600560006101000a81548160ff02191690831515021790555034801561002b57600080fd5b5033600360006101000a81548173ffffffffffffffffffffffffffffffffffffffff021916908373ffffffffffffffffffffffffffffffffffffffff1602179055506116bb8061007c6000396000f3fe6080604052600436106100915760003560e01c806399a167d71161005957806399a167d7146101a5578063a40674b7146101e2578063d04c9a8c1461020d578063e3b634f41461024a578063f4b46f5b1461026157610091565b80630328209614610096578063403c9fa8146100d35780637009fa36146100fe57806379141f801461013b57806384f7e4f01461017a575b600080fd5b3480156100a257600080fd5b506100bd60048036038101906100b89190610f7b565b610291565b6040516100ca9190610fc3565b60405180910390f35b3480156100df57600080fd5b506100e86103e4565b6040516100f59190610ff7565b60405180910390f35b34801561010a57600080fd5b5061012560048036038101906101209190611048565b6103ee565b6040516101329190610fc3565b60405180910390f35b34801561014757600080fd5b50610162600480360381019061015d91906110a1565b610490565b6040516101719392919061111e565b60405180910390f35b34801561018657600080fd5b5061018f61058e565b60405161019c9190611164565b60405180910390f35b3480156101b157600080fd5b506101cc60048036038101906101c7919061117f565b610594565b6040516101d99190611236565b60405180910390f35b3480156101ee57600080fd5b506101f761087d565b6040516102049190610ff7565b60405180910390f35b34801561021957600080fd5b50610234600480360381019061022f91906110a1565b610886565b6040516102419190610fc3565b60405180910390f35b34801561025657600080fd5b5061025f6108ea565b005b61027b60048036038101906102769190610f7b565b610c78565b6040516102889190610fc3565b60405180910390f35b600061029b610ec5565b33816020019073ffffffffffffffffffffffffffffffffffffffff16908173ffffffffffffffffffffffffffffffffffffffff16815250506003436102e09190611280565b8160000181815250508281604001907effffffffffffffffffffffffffffffffffffffffffffffffffffffffffffff191690817effffffffffffffffffffffffffffffffffffffffffffffffffffffffffffff1916815250508060026000805481526020019081526020016000206000820151816000015560208201518160010160006101000a81548173ffffffffffffffffffffffffffffffffffffffff021916908373ffffffffffffffffffffffffffffffffffffffff16021790555060408201518160010160146101000a81548160ff021916908360f81c02179055509050506000808154809291906103d5906112d6565b91905055506001915050919050565b6000600454905090565b6000600360009054906101000a900473ffffffffffffffffffffffffffffffffffffffff1673ffffffffffffffffffffffffffffffffffffffff163373ffffffffffffffffffffffffffffffffffffffff1614610480576040517f08c379a00000000000000000000000000000000000000000000000000000000081526004016104779061137b565b60405180910390fd5b8160068190555060019050919050565b60008060008060026000868152602001908152602001600020604051806060016040529081600082015481526020016001820160009054906101000a900473ffffffffffffffffffffffffffffffffffffffff1673ffffffffffffffffffffffffffffffffffffffff1673ffffffffffffffffffffffffffffffffffffffff1681526020016001820160149054906101000a900460f81b7effffffffffffffffffffffffffffffffffffffffffffffffffffffffffffff19167effffffffffffffffffffffffffffffffffffffffffffffffffffffffffffff1916815250509050806000015193508060200151925080604001519150509193909250565b60065481565b60008083905060008490506000846000602081106105b5576105b461139b565b5b1a60f81b90506000856000602081106105d1576105d061139b565b5b1a60f81b90506004847effffffffffffffffffffffffffffffffffffffffffffffffffffffffffffff1916901c93506004847effffffffffffffffffffffffffffffffffffffffffffffffffffffffffffff1916901b93506004827effffffffffffffffffffffffffffffffffffffffffffffffffffffffffffff1916901c91506004827effffffffffffffffffffffffffffffffffffffffffffffffffffffffffffff1916901b91506004837effffffffffffffffffffffffffffffffffffffffffffffffffffffffffffff1916901b92506004837effffffffffffffffffffffffffffffffffffffffffffffffffffffffffffff1916901c92506004817effffffffffffffffffffffffffffffffffffffffffffffffffffffffffffff1916901b90506004817effffffffffffffffffffffffffffffffffffffffffffffffffffffffffffff1916901c9050837effffffffffffffffffffffffffffffffffffffffffffffffffffffffffffff1916827effffffffffffffffffffffffffffffffffffffffffffffffffffffffffffff19161480156107b55750827effffffffffffffffffffffffffffffffffffffffffffffffffffffffffffff1916817effffffffffffffffffffffffffffffffffffffffffffffffffffffffffffff1916145b156107c7576001945050505050610877565b837effffffffffffffffffffffffffffffffffffffffffffffffffffffffffffff1916827effffffffffffffffffffffffffffffffffffffffffffffffffffffffffffff1916148061085c5750827effffffffffffffffffffffffffffffffffffffffffffffffffffffffffffff1916817effffffffffffffffffffffffffffffffffffffffffffffffffffffffffffff1916145b1561086e576002945050505050610877565b60009450505050505b92915050565b60006005905090565b6000600260008381526020019081526020016000206000808201600090556001820160006101000a81549073ffffffffffffffffffffffffffffffffffffffff02191690556001820160146101000a81549060ff0219169055505060019050919050565b6000806108f5610ec5565b60008060015494505b600054851015610c715760026000868152602001908152602001600020604051806060016040529081600082015481526020016001820160009054906101000a900473ffffffffffffffffffffffffffffffffffffffff1673ffffffffffffffffffffffffffffffffffffffff1673ffffffffffffffffffffffffffffffffffffffff1681526020016001820160149054906101000a900460f81b7effffffffffffffffffffffffffffffffffffffffffffffffffffffffffffff19167effffffffffffffffffffffffffffffffffffffffffffffffffffffffffffff19168152505092506109f08360000151610d6d565b915060006002811115610a0657610a056111bf565b5b826002811115610a1957610a186111bf565b5b03610c5e576000610a2d8460000151610dcb565b9050610a3d846040015182610594565b915060016002811115610a5357610a526111bf565b5b826002811115610a6657610a656111bf565b5b03610afc57610a8d84602001516611c37937e08000600454610a889190611280565b610df3565b945060006004819055507f8219079e2d6c1192fb0ff7f78e6faaf5528ad6687e69749205d87bd4b156912b86856020015187876040015185600060208110610ad857610ad761139b565b5b1a60f81b8960000151604051610af396959493929190611429565b60405180910390a15b60006002811115610b1057610b0f6111bf565b5b826002811115610b2357610b226111bf565b5b03610bae576611c37937e0800060046000828254610b419190611280565b925050819055507f3b19d607433249d2ebc766ae82ca3848e9c064f1febb5147bc6e5b21d0adebc58685602001516000876040015185600060208110610b8a57610b8961139b565b5b1a60f81b8960000151604051610ba5969594939291906114c5565b60405180910390a15b600280811115610bc157610bc06111bf565b5b826002811115610bd457610bd36111bf565b5b03610c5c57610bee84602001516611c37937e08000610df3565b94507f72ec2e949e4fad9380f9d5db3e2ed0e71cf22c51d8d66424508bdc761a3f4b0e8685602001516611c37937e08000876040015185600060208110610c3857610c3761139b565b5b1a60f81b8960000151604051610c5396959493929190611429565b60405180910390a15b505b8480610c69906112d6565b9550506108fe565b5050505050565b60006611c37937e080003414610cc3576040517f08c379a0000000000000000000000000000000000000000000000000000000008152600401610cba90611572565b60405180910390fd5b610ccc82610291565b610d0b576040517f08c379a0000000000000000000000000000000000000000000000000000000008152600401610d02906115de565b60405180910390fd5b7f100791de9f40bf2d56ffa6dc5597d2fd0b2703ea70bc7548cd74c04f5d215ab76001600054610d3b91906115fe565b333485600343610d4b9190611280565b604051610d5c959493929190611632565b60405180910390a160019050919050565b60008143118015610d8a575081610100610d879190611280565b43105b15610d985760009050610dc6565b814311610da85760019050610dc6565b61010082610db69190611280565b4310610dc55760029050610dc6565b5b919050565b6000600560009054906101000a900460ff16610de957600654610dec565b81405b9050919050565b6000806000905060008184610e0891906115fe565b90508473ffffffffffffffffffffffffffffffffffffffff166108fc829081150290604051600060405180830381858888f19350505050158015610e50573d6000803e3d6000fd5b50600360009054906101000a900473ffffffffffffffffffffffffffffffffffffffff1673ffffffffffffffffffffffffffffffffffffffff166108fc839081150290604051600060405180830381858888f19350505050158015610eb9573d6000803e3d6000fd5b50809250505092915050565b604051806060016040528060008152602001600073ffffffffffffffffffffffffffffffffffffffff16815260200160007effffffffffffffffffffffffffffffffffffffffffffffffffffffffffffff191681525090565b600080fd5b60007fff0000000000000000000000000000000000000000000000000000000000000082169050919050565b610f5881610f23565b8114610f6357600080fd5b50565b600081359050610f7581610f4f565b92915050565b600060208284031215610f9157610f90610f1e565b5b6000610f9f84828501610f66565b91505092915050565b60008115159050919050565b610fbd81610fa8565b82525050565b6000602082019050610fd86000830184610fb4565b92915050565b6000819050919050565b610ff181610fde565b82525050565b600060208201905061100c6000830184610fe8565b92915050565b6000819050919050565b61102581611012565b811461103057600080fd5b50565b6000813590506110428161101c565b92915050565b60006020828403121561105e5761105d610f1e565b5b600061106c84828501611033565b91505092915050565b61107e81610fde565b811461108957600080fd5b50565b60008135905061109b81611075565b92915050565b6000602082840312156110b7576110b6610f1e565b5b60006110c58482850161108c565b91505092915050565b600073ffffffffffffffffffffffffffffffffffffffff82169050919050565b60006110f9826110ce565b9050919050565b611109816110ee565b82525050565b61111881610f23565b82525050565b60006060820190506111336000830186610fe8565b6111406020830185611100565b61114d604083018461110f565b949350505050565b61115e81611012565b82525050565b60006020820190506111796000830184611155565b92915050565b6000806040838503121561119657611195610f1e565b5b60006111a485828601610f66565b92505060206111b585828601611033565b9150509250929050565b7f4e487b7100000000000000000000000000000000000000000000000000000000600052602160045260246000fd5b600381106111ff576111fe6111bf565b5b50565b6000819050611210826111ee565b919050565b600061122082611202565b9050919050565b61123081611215565b82525050565b600060208201905061124b6000830184611227565b92915050565b7f4e487b7100000000000000000000000000000000000000000000000000000000600052601160045260246000fd5b600061128b82610fde565b915061129683610fde565b9250827fffffffffffffffffffffffffffffffffffffffffffffffffffffffffffffffff038211156112cb576112ca611251565b5b828201905092915050565b60006112e182610fde565b91507fffffffffffffffffffffffffffffffffffffffffffffffffffffffffffffffff820361131357611312611251565b5b600182019050919050565b600082825260208201905092915050565b7f4f6e6c79206f776e65722063616e207365742074686520616e73776572000000600082015250565b6000611365601d8361131e565b91506113708261132f565b602082019050919050565b6000602082019050818103600083015261139481611358565b9050919050565b7f4e487b7100000000000000000000000000000000000000000000000000000000600052603260045260246000fd5b6000819050919050565b60006113ef6113ea6113e5846110ce565b6113ca565b6110ce565b9050919050565b6000611401826113d4565b9050919050565b6000611413826113f6565b9050919050565b61142381611408565b82525050565b600060c08201905061143e6000830189610fe8565b61144b602083018861141a565b6114586040830187610fe8565b611465606083018661110f565b611472608083018561110f565b61147f60a0830184610fe8565b979650505050505050565b6000819050919050565b60006114af6114aa6114a58461148a565b6113ca565b610fde565b9050919050565b6114bf81611494565b82525050565b600060c0820190506114da6000830189610fe8565b6114e7602083018861141a565b6114f460408301876114b6565b611501606083018661110f565b61150e608083018561110f565b61151b60a0830184610fe8565b979650505050505050565b7f4e6f7420656e6f75676820455448000000000000000000000000000000000000600082015250565b600061155c600e8361131e565b915061156782611526565b602082019050919050565b6000602082019050818103600083015261158b8161154f565b9050919050565b7f4661696c20746f20616464642061206e65772042657420496e666f0000000000600082015250565b60006115c8601b8361131e565b91506115d382611592565b602082019050919050565b600060208201905081810360008301526115f7816115bb565b9050919050565b600061160982610fde565b915061161483610fde565b92508282101561162757611626611251565b5b828203905092915050565b600060a0820190506116476000830188610fe8565b6116546020830187611100565b6116616040830186610fe8565b61166e606083018561110f565b61167b6080830184610fe8565b969550505050505056fea2646970667358221220f11cec6b7930a002458ffc8c6668bda112ce8851897ff1d864d437683700766b64736f6c634300080d0033",
  "immutableReferences": {},
  "source": "pragma solidity >=0.4.22 <0.9.0;\r\n\r\ncontract Lottery {\r\n    struct BetInfo {\r\n        uint256 answerBlockNumber;\r\n        address payable bettor; // payable    \r\n        bytes1 challenges;\r\n    }\r\n\r\n    uint256 private _tail;\r\n    uint256 private _head;\r\n    mapping(uint256 => BetInfo) private _bets;\r\n\r\n    address payable owner;\r\n\r\n    uint256 internal constant BLOCK_LIMIT = 256;\r\n    uint256 internal constant BET_BLOCK_INTERVAL = 3;\r\n    uint256 internal constant BET_AMOUNT = 5 * 10**15;\r\n\r\n    uint256 private _pot;\r\n    bool private mode = false; // test = False\r\n    bytes32 public answerForTest;\r\n\r\n    enum BlockStatus {\r\n        Checkable,\r\n        NotRevealed,\r\n        BlockLimitPassed\r\n    }\r\n    enum BettingResult {\r\n        Fail,\r\n        Win,\r\n        Draw\r\n    }\r\n\r\n    event BET(\r\n        uint256 index,\r\n        address bettor,\r\n        uint256 amount,\r\n        bytes1 challenges,\r\n        uint256 answerBlockNumber\r\n    );\r\n    event WIN(\r\n        uint256 index,\r\n        address bettor,\r\n        uint256 amount,\r\n        bytes1 challenges,\r\n        bytes1 answer,\r\n        uint256 answerBlockNumer\r\n    );\r\n    event FAIL(\r\n        uint256 index,\r\n        address bettor,\r\n        uint256 amount,\r\n        bytes1 challenges,\r\n        bytes1 answer,\r\n        uint256 answerBlockNumer\r\n    );\r\n    event DRAW(\r\n        uint256 index,\r\n        address bettor,\r\n        uint256 amount,\r\n        bytes1 challenges,\r\n        bytes1 answer,\r\n        uint256 answerBlockNumer\r\n    );\r\n    event REFUND(\r\n        uint256 index,\r\n        address bettor,\r\n        uint256 amount,\r\n        bytes1 challenges,\r\n        uint256 answerBlockNumer\r\n    );\r\n\r\n    constructor() {\r\n        owner = payable(msg.sender);\r\n    }\r\n\r\n    function getSomeValue() public pure returns (uint256 value) {\r\n        return 5;\r\n    }\r\n\r\n    function getPot() public view returns (uint256 pot) {\r\n        return _pot;\r\n    }\r\n\r\n    function bet(bytes1 challenges) public payable returns (bool result) {\r\n        // check the proper ether is sent\r\n        require(msg.value == BET_AMOUNT, \"Not enough ETH\");\r\n\r\n        // push bet to the queue\r\n        require(pushBet(challenges), \"Fail to addd a new Bet Info\");\r\n\r\n        // emit evnet\r\n        emit BET(\r\n            _tail - 1,\r\n            msg.sender,\r\n            msg.value,\r\n            challenges,\r\n            block.number + BET_BLOCK_INTERVAL\r\n        );\r\n        return true;\r\n    }\r\n\r\n    // save the bet to the queue\r\n\r\n    // Distribute\r\n    function destribute() public {\r\n        uint256 cur;\r\n        uint256 transferAmount;\r\n\r\n        BetInfo memory b;\r\n        BlockStatus currentBlockStatus;\r\n        BettingResult currentBettingResult;\r\n\r\n        for (cur = _head; cur < _tail; cur++) {\r\n            b = _bets[cur];\r\n            currentBlockStatus = getBlockStatus(b.answerBlockNumber);\r\n            // Checkable : answerBlockNumber < block.number < answerBlockNumber + block limit\r\n            if (currentBlockStatus == BlockStatus.Checkable) {\r\n                bytes32 answerBlockHash = getAnswerBlockHash(\r\n                    b.answerBlockNumber\r\n                );\r\n                currentBettingResult = isMatch(b.challenges, answerBlockHash);\r\n\r\n                //if win, bettor get pot\r\n                if (currentBettingResult == BettingResult.Win) {\r\n                    transferAmount = transferAfterPayingFee(\r\n                        b.bettor,\r\n                        _pot + BET_AMOUNT\r\n                    );\r\n                    _pot = 0;\r\n                    emit WIN(\r\n                        cur,\r\n                        b.bettor,\r\n                        transferAmount,\r\n                        b.challenges,\r\n                        answerBlockHash[0],\r\n                        b.answerBlockNumber\r\n                    );\r\n                }\r\n                //if fail, pot get bettor's money\r\n                if (currentBettingResult == BettingResult.Fail) {\r\n                    _pot += BET_AMOUNT;\r\n                    emit FAIL(\r\n                        cur,\r\n                        b.bettor,\r\n                        0,\r\n                        b.challenges,\r\n                        answerBlockHash[0],\r\n                        b.answerBlockNumber\r\n                    );\r\n                }\r\n\r\n                //if draw, refund\r\n                if (currentBettingResult == BettingResult.Draw) {\r\n                    transferAmount = transferAfterPayingFee(\r\n                        b.bettor,\r\n                        BET_AMOUNT\r\n                    );\r\n                    emit DRAW(\r\n                        cur,\r\n                        b.bettor,\r\n                        BET_AMOUNT,\r\n                        b.challenges,\r\n                        answerBlockHash[0],\r\n                        b.answerBlockNumber\r\n                    );\r\n                }\r\n            }\r\n\r\n            // Not Revealed : block.number <= AnswerBlockNumber\r\n\r\n            // Block Limit Passed : block.number >= AnswerBlockNumber + BLOCK_LIMIT\r\n\r\n            // check the answer\r\n        }\r\n    }\r\n\r\n    function getBlockStatus(uint256 answerBlockNumber)\r\n        internal\r\n        view\r\n        returns (BlockStatus)\r\n    {\r\n        if (\r\n            block.number > answerBlockNumber &&\r\n            block.number < BLOCK_LIMIT + answerBlockNumber\r\n        ) {\r\n            return BlockStatus.Checkable;\r\n        }\r\n\r\n        if (block.number <= answerBlockNumber) {\r\n            return BlockStatus.NotRevealed;\r\n        }\r\n\r\n        if (block.number >= answerBlockNumber + BLOCK_LIMIT) {\r\n            return BlockStatus.BlockLimitPassed;\r\n        }\r\n    }\r\n\r\n    // check the answer\r\n\r\n    function getBetInfo(uint256 index)\r\n        public\r\n        view\r\n        returns (\r\n            uint256 answerBlockNumber,\r\n            address bettor,\r\n            bytes1 challenges\r\n        )\r\n    {\r\n        BetInfo memory b = _bets[index];\r\n        answerBlockNumber = b.answerBlockNumber;\r\n        bettor = b.bettor;\r\n        challenges = b.challenges;\r\n    }\r\n\r\n    function pushBet(bytes1 challenges) public returns (bool) {\r\n        BetInfo memory b;\r\n        b.bettor = payable(msg.sender);\r\n        b.answerBlockNumber = block.number + BET_BLOCK_INTERVAL;\r\n        b.challenges = challenges;\r\n\r\n        _bets[_tail] = b;\r\n        _tail++;\r\n\r\n        return true;\r\n    }\r\n\r\n    function popBet(uint256 index) public returns (bool) {\r\n        delete _bets[index];\r\n        return true;\r\n    }\r\n\r\n    function transferAfterPayingFee(address payable addr, uint256 amount)\r\n        internal\r\n        returns (uint256)\r\n    {\r\n        uint256 fee = 0;\r\n        uint256 amountWithoutFee = amount - fee;\r\n\r\n        addr.transfer(amountWithoutFee);\r\n        owner.transfer(fee);\r\n\r\n        // transfer =   \r\n\r\n        return amountWithoutFee;\r\n    }\r\n\r\n    function setAnswerForTest(bytes32 answer) public returns (bool result) {\r\n        require(msg.sender == owner, \"Only owner can set the answer\");\r\n        answerForTest = answer;\r\n        return true;\r\n    }\r\n\r\n    function getAnswerBlockHash(uint256 answerBlockNumber)\r\n        internal\r\n        view\r\n        returns (bytes32 answer)\r\n    {\r\n        return mode ? blockhash(answerBlockNumber) : answerForTest;\r\n    }\r\n\r\n    function isMatch(bytes1 challenges, bytes32 answer)\r\n        public\r\n        pure\r\n        returns (BettingResult)\r\n    {\r\n        // challenges 0xab\r\n        // answer 0xab.... 32 bytes\r\n\r\n        bytes1 c1 = challenges;\r\n        bytes1 c2 = challenges;\r\n\r\n        bytes1 a1 = answer[0];\r\n        bytes1 a2 = answer[0];\r\n\r\n        // first word parsing\r\n        c1 = c1 >> 4;\r\n        c1 = c1 << 4;\r\n\r\n        a1 = a1 >> 4;\r\n        a1 = a1 << 4;\r\n\r\n        // second word parsing\r\n        c2 = c2 << 4;\r\n        c2 = c2 >> 4;\r\n\r\n        a2 = a2 << 4;\r\n        a2 = a2 >> 4;\r\n\r\n        if (a1 == c1 && a2 == c2) {\r\n            return BettingResult.Win;\r\n        }\r\n\r\n        if (a1 == c1 || a2 == c2) {\r\n            return BettingResult.Draw;\r\n        }\r\n\r\n        return BettingResult.Fail;\r\n    }\r\n}\r\n",
  "sourcePath": "C:\\workspace\\HKNU\\blockChain\\lottery-smart-contract\\contracts\\Lottery.sol",
  "compiler": {
    "name": "solc",
    "version": "0.8.13+commit.abaa5c0e.Emscripten.clang"
  },
  "schemaVersion": "3.4.7",
  "updatedAt": "2022-05-12T06:38:24.969Z",
  "devdoc": {
    "kind": "dev",
    "methods": {},
    "version": 1
  },
  "userdoc": {
    "kind": "user",
    "methods": {},
    "version": 1
  }
}